{
  "_format": "hh-sol-artifact-1",
  "contractName": "RWAPokemonCards",
  "sourceName": "contracts/RWAPokemonCards.sol",
  "abi": [
    {
      "inputs": [],
      "stateMutability": "nonpayable",
      "type": "constructor"
    },
    {
      "inputs": [],
      "name": "ERC721EnumerableForbiddenBatchMint",
      "type": "error"
    },
    {
      "inputs": [
        {
          "internalType": "address",
          "name": "sender",
          "type": "address"
        },
        {
          "internalType": "uint256",
          "name": "tokenId",
          "type": "uint256"
        },
        {
          "internalType": "address",
          "name": "owner",
          "type": "address"
        }
      ],
      "name": "ERC721IncorrectOwner",
      "type": "error"
    },
    {
      "inputs": [
        {
          "internalType": "address",
          "name": "operator",
          "type": "address"
        },
        {
          "internalType": "uint256",
          "name": "tokenId",
          "type": "uint256"
        }
      ],
      "name": "ERC721InsufficientApproval",
      "type": "error"
    },
    {
      "inputs": [
        {
          "internalType": "address",
          "name": "approver",
          "type": "address"
        }
      ],
      "name": "ERC721InvalidApprover",
      "type": "error"
    },
    {
      "inputs": [
        {
          "internalType": "address",
          "name": "operator",
          "type": "address"
        }
      ],
      "name": "ERC721InvalidOperator",
      "type": "error"
    },
    {
      "inputs": [
        {
          "internalType": "address",
          "name": "owner",
          "type": "address"
        }
      ],
      "name": "ERC721InvalidOwner",
      "type": "error"
    },
    {
      "inputs": [
        {
          "internalType": "address",
          "name": "receiver",
          "type": "address"
        }
      ],
      "name": "ERC721InvalidReceiver",
      "type": "error"
    },
    {
      "inputs": [
        {
          "internalType": "address",
          "name": "sender",
          "type": "address"
        }
      ],
      "name": "ERC721InvalidSender",
      "type": "error"
    },
    {
      "inputs": [
        {
          "internalType": "uint256",
          "name": "tokenId",
          "type": "uint256"
        }
      ],
      "name": "ERC721NonexistentToken",
      "type": "error"
    },
    {
      "inputs": [
        {
          "internalType": "address",
          "name": "owner",
          "type": "address"
        },
        {
          "internalType": "uint256",
          "name": "index",
          "type": "uint256"
        }
      ],
      "name": "ERC721OutOfBoundsIndex",
      "type": "error"
    },
    {
      "inputs": [],
      "name": "UnauthorizedTransfer",
      "type": "error"
    },
    {
      "anonymous": false,
      "inputs": [
        {
          "indexed": true,
          "internalType": "address",
          "name": "owner",
          "type": "address"
        },
        {
          "indexed": true,
          "internalType": "address",
          "name": "approved",
          "type": "address"
        },
        {
          "indexed": true,
          "internalType": "uint256",
          "name": "tokenId",
          "type": "uint256"
        }
      ],
      "name": "Approval",
      "type": "event"
    },
    {
      "anonymous": false,
      "inputs": [
        {
          "indexed": true,
          "internalType": "address",
          "name": "owner",
          "type": "address"
        },
        {
          "indexed": true,
          "internalType": "address",
          "name": "operator",
          "type": "address"
        },
        {
          "indexed": false,
          "internalType": "bool",
          "name": "approved",
          "type": "bool"
        }
      ],
      "name": "ApprovalForAll",
      "type": "event"
    },
    {
      "anonymous": false,
      "inputs": [
        {
          "indexed": false,
          "internalType": "uint256",
          "name": "_fromTokenId",
          "type": "uint256"
        },
        {
          "indexed": false,
          "internalType": "uint256",
          "name": "_toTokenId",
          "type": "uint256"
        }
      ],
      "name": "BatchMetadataUpdate",
      "type": "event"
    },
    {
      "anonymous": false,
      "inputs": [
        {
          "indexed": true,
          "internalType": "uint256",
          "name": "tokenId",
          "type": "uint256"
        },
        {
          "indexed": false,
          "internalType": "string",
          "name": "tokenURI",
          "type": "string"
        },
        {
          "indexed": true,
          "internalType": "address",
          "name": "to",
          "type": "address"
        }
      ],
      "name": "CardMinted",
      "type": "event"
    },
    {
      "anonymous": false,
      "inputs": [
        {
          "indexed": false,
          "internalType": "uint256",
          "name": "_tokenId",
          "type": "uint256"
        }
      ],
      "name": "MetadataUpdate",
      "type": "event"
    },
    {
      "anonymous": false,
      "inputs": [
        {
          "indexed": true,
          "internalType": "address",
          "name": "from",
          "type": "address"
        },
        {
          "indexed": true,
          "internalType": "address",
          "name": "to",
          "type": "address"
        },
        {
          "indexed": true,
          "internalType": "uint256",
          "name": "tokenId",
          "type": "uint256"
        }
      ],
      "name": "Transfer",
      "type": "event"
    },
    {
      "inputs": [
        {
          "internalType": "address",
          "name": "to",
          "type": "address"
        },
        {
          "internalType": "uint256",
          "name": "tokenId",
          "type": "uint256"
        }
      ],
      "name": "approve",
      "outputs": [],
      "stateMutability": "nonpayable",
      "type": "function"
    },
    {
      "inputs": [
        {
          "internalType": "address",
          "name": "owner",
          "type": "address"
        }
      ],
      "name": "balanceOf",
      "outputs": [
        {
          "internalType": "uint256",
          "name": "",
          "type": "uint256"
        }
      ],
      "stateMutability": "view",
      "type": "function"
    },
    {
      "inputs": [
        {
          "internalType": "uint256",
          "name": "tokenId",
          "type": "uint256"
        }
      ],
      "name": "getApproved",
      "outputs": [
        {
          "internalType": "address",
          "name": "",
          "type": "address"
        }
      ],
      "stateMutability": "view",
      "type": "function"
    },
    {
      "inputs": [
        {
          "internalType": "uint256",
          "name": "tokenId",
          "type": "uint256"
        }
      ],
      "name": "getEncryptedOwner",
      "outputs": [
        {
          "internalType": "eaddress",
          "name": "",
          "type": "bytes32"
        }
      ],
      "stateMutability": "view",
      "type": "function"
    },
    {
      "inputs": [
        {
          "internalType": "address",
          "name": "owner",
          "type": "address"
        },
        {
          "internalType": "address",
          "name": "operator",
          "type": "address"
        }
      ],
      "name": "isApprovedForAll",
      "outputs": [
        {
          "internalType": "bool",
          "name": "",
          "type": "bool"
        }
      ],
      "stateMutability": "view",
      "type": "function"
    },
    {
      "inputs": [
        {
          "internalType": "string",
          "name": "tokenUri",
          "type": "string"
        },
        {
          "internalType": "externalEaddress",
          "name": "encryptedTo",
          "type": "bytes32"
        },
        {
          "internalType": "bytes",
          "name": "inputProof",
          "type": "bytes"
        }
      ],
      "name": "mintCard",
      "outputs": [
        {
          "internalType": "uint256",
          "name": "",
          "type": "uint256"
        }
      ],
      "stateMutability": "nonpayable",
      "type": "function"
    },
    {
      "inputs": [],
      "name": "name",
      "outputs": [
        {
          "internalType": "string",
          "name": "",
          "type": "string"
        }
      ],
      "stateMutability": "view",
      "type": "function"
    },
    {
      "inputs": [
        {
          "internalType": "uint256",
          "name": "tokenId",
          "type": "uint256"
        }
      ],
      "name": "ownerOf",
      "outputs": [
        {
          "internalType": "address",
          "name": "",
          "type": "address"
        }
      ],
      "stateMutability": "view",
      "type": "function"
    },
    {
      "inputs": [],
      "name": "protocolId",
      "outputs": [
        {
          "internalType": "uint256",
          "name": "",
          "type": "uint256"
        }
      ],
      "stateMutability": "pure",
      "type": "function"
    },
    {
      "inputs": [
        {
          "internalType": "address",
          "name": "from",
          "type": "address"
        },
        {
          "internalType": "address",
          "name": "to",
          "type": "address"
        },
        {
          "internalType": "uint256",
          "name": "tokenId",
          "type": "uint256"
        }
      ],
      "name": "safeTransferFrom",
      "outputs": [],
      "stateMutability": "nonpayable",
      "type": "function"
    },
    {
      "inputs": [
        {
          "internalType": "address",
          "name": "from",
          "type": "address"
        },
        {
          "internalType": "address",
          "name": "to",
          "type": "address"
        },
        {
          "internalType": "uint256",
          "name": "tokenId",
          "type": "uint256"
        },
        {
          "internalType": "bytes",
          "name": "data",
          "type": "bytes"
        }
      ],
      "name": "safeTransferFrom",
      "outputs": [],
      "stateMutability": "nonpayable",
      "type": "function"
    },
    {
      "inputs": [
        {
          "internalType": "address",
          "name": "operator",
          "type": "address"
        },
        {
          "internalType": "bool",
          "name": "approved",
          "type": "bool"
        }
      ],
      "name": "setApprovalForAll",
      "outputs": [],
      "stateMutability": "nonpayable",
      "type": "function"
    },
    {
      "inputs": [
        {
          "internalType": "bytes4",
          "name": "interfaceId",
          "type": "bytes4"
        }
      ],
      "name": "supportsInterface",
      "outputs": [
        {
          "internalType": "bool",
          "name": "",
          "type": "bool"
        }
      ],
      "stateMutability": "view",
      "type": "function"
    },
    {
      "inputs": [],
      "name": "symbol",
      "outputs": [
        {
          "internalType": "string",
          "name": "",
          "type": "string"
        }
      ],
      "stateMutability": "view",
      "type": "function"
    },
    {
      "inputs": [
        {
          "internalType": "uint256",
          "name": "index",
          "type": "uint256"
        }
      ],
      "name": "tokenByIndex",
      "outputs": [
        {
          "internalType": "uint256",
          "name": "",
          "type": "uint256"
        }
      ],
      "stateMutability": "view",
      "type": "function"
    },
    {
      "inputs": [
        {
          "internalType": "address",
          "name": "owner",
          "type": "address"
        },
        {
          "internalType": "uint256",
          "name": "index",
          "type": "uint256"
        }
      ],
      "name": "tokenOfOwnerByIndex",
      "outputs": [
        {
          "internalType": "uint256",
          "name": "",
          "type": "uint256"
        }
      ],
      "stateMutability": "view",
      "type": "function"
    },
    {
      "inputs": [
        {
          "internalType": "uint256",
          "name": "tokenId",
          "type": "uint256"
        }
      ],
      "name": "tokenURI",
      "outputs": [
        {
          "internalType": "string",
          "name": "",
          "type": "string"
        }
      ],
      "stateMutability": "view",
      "type": "function"
    },
    {
      "inputs": [],
      "name": "totalSupply",
      "outputs": [
        {
          "internalType": "uint256",
          "name": "",
          "type": "uint256"
        }
      ],
      "stateMutability": "view",
      "type": "function"
    },
    {
      "inputs": [
        {
          "internalType": "uint256",
          "name": "tokenId",
          "type": "uint256"
        },
        {
          "internalType": "address",
          "name": "to",
          "type": "address"
        },
        {
          "internalType": "externalEaddress",
          "name": "encryptedCurrentOwner",
          "type": "bytes32"
        },
        {
          "internalType": "externalEaddress",
          "name": "encryptedTo",
          "type": "bytes32"
        },
        {
          "internalType": "bytes",
          "name": "inputProof",
          "type": "bytes"
        }
      ],
      "name": "transfer",
      "outputs": [],
      "stateMutability": "nonpayable",
      "type": "function"
    },
    {
      "inputs": [
        {
          "internalType": "address",
          "name": "from",
          "type": "address"
        },
        {
          "internalType": "address",
          "name": "to",
          "type": "address"
        },
        {
          "internalType": "uint256",
          "name": "tokenId",
          "type": "uint256"
        }
      ],
      "name": "transferFrom",
      "outputs": [],
      "stateMutability": "nonpayable",
      "type": "function"
    }
  ],
  "bytecode": "0x60806040523461044c57610013604061046f565b601181527052574120506f6b656d6f6e20436172647360781b602082015261003b604061046f565b6005815264525741504360d81b60208201525f6060610058610450565b8281528260208201528260408201520152731364cbbf2cdf5032c47d8226a6f6fbd2afcdacac6060610088610450565b73687820221192c5b662b25367f70076a37bc79b6c80825273848b0066793bcc60346da1f49049357399b8d5956020830181905273a02cda4ca3a71d7c46997716f4283aa851c288126040840181905293909201939093527f9e7b61f58c47dc699ac88507c4f5bb9f121c03808c5676a8078fe583e464970080546001600160a01b031990811690941790557f9e7b61f58c47dc699ac88507c4f5bb9f121c03808c5676a8078fe583e46497018054841690911790557f9e7b61f58c47dc699ac88507c4f5bb9f121c03808c5676a8078fe583e46497028054831690911790557f9e7b61f58c47dc699ac88507c4f5bb9f121c03808c5676a8078fe583e46497038054909116731364cbbf2cdf5032c47d8226a6f6fbd2afcdacac17905581516001600160401b038111610362575f54600181811c91168015610442575b602082101461034457601f81116103e0575b50602092601f821160011461038157928192935f92610376575b50508160011b915f199060031b1c1916175f555b80516001600160401b03811161036257600154600181811c91168015610358575b602082101461034457601f81116102e1575b50602091601f8211600114610281579181925f92610276575b50508160011b915f199060031b1c1916176001555b60405161179390816104958239f35b015190505f80610252565b601f1982169260015f52805f20915f5b8581106102c9575083600195106102b1575b505050811b01600155610267565b01515f1960f88460031b161c191690555f80806102a3565b91926020600181928685015181550194019201610291565b60015f527fb10e2d527612073b26eecdfd717e6a320cf44b4afac2b0732d9fcbe2b7fa0cf6601f830160051c8101916020841061033a575b601f0160051c01905b81811061032f5750610239565b5f8155600101610322565b9091508190610319565b634e487b7160e01b5f52602260045260245ffd5b90607f1690610227565b634e487b7160e01b5f52604160045260245ffd5b015190505f806101f2565b601f198216935f8052805f20915f5b8681106103c857508360019596106103b0575b505050811b015f55610206565b01515f1960f88460031b161c191690555f80806103a3565b91926020600181928685015181550194019201610390565b5f80527f290decd9548b62a8d60345a988386fc84ba6bc95484008f6362f93160ef3e563601f830160051c81019160208410610438575b601f0160051c01905b81811061042d57506101d8565b5f8155600101610420565b9091508190610417565b90607f16906101c6565b5f80fd5b60405190608082016001600160401b0381118382101761036257604052565b6040519190601f01601f191682016001600160401b038111838210176103625760405256fe6080806040526004361015610012575f80fd5b5f3560e01c90816301ffc9a714610e1a5750806306fdde0314610d78578063081812fc14610d3b578063095ea7b314610c4f5780630af485cd14610c1b57806318160ddd14610bfe57806323b872dd14610be75780632f745c5914610b7b57806342842e0e14610b4c5780634f6ccce714610afe5780636352211e14610acf57806370a0823114610aa4578063820c778e1461055257806395d89b4114610488578063a22cb465146103ed578063b88d4fde14610381578063c87b56dd1461034a578063d4a0222e14610171578063da1f12ab146101555763e985e9c5146100f8575f80fd5b3461015157604036600319011261015157610111610edd565b6001600160a01b03610121610ef3565b91165f5260056020526001600160a01b0360405f2091165f52602052602060ff60405f2054166040519015158152f35b5f80fd5b34610151575f3660031901126101515760206040516127118152f35b346101515760a03660031901126101515760043561018d610ef3565b60843567ffffffffffffffff8111610151576101ad903690600401610fb7565b906101b784611312565b506001600160a01b03831615610337576101ec6101f4916101e46101dc368684610f81565b604435611345565b933691610f81565b606435611345565b90835f52600b60205261020a60405f205461166e565b15610328576102189061166e565b1561032857825f5260026020526001600160a01b0360405f2054169261023d81611312565b9380151580610315575b806102e2575b6102d05750805f6001600160a01b036102ce96167f8c5be1e5ebec7d5bd14f71427d1e84f3dd0314c0f7b2291e5b200ac8c7c3b9258280a4805f52600460205260405f206001600160a01b031981541690556102b281846102ad82611312565b61101d565b5f52600b6020528060405f20556102c93082611709565b611709565b005b63a9fbf51f60e01b5f5260045260245ffd5b506001600160a01b0385165f52600560205260405f206001600160a01b0382165f5260205260ff60405f2054161561024d565b50806001600160a01b0386161415610247565b6325cdf54f60e21b5f5260045ffd5b633250574960e11b5f525f60045260245ffd5b346101515760203660031901126101515761037d6103696004356115a9565b604051918291602083526020830190610eb9565b0390f35b346101515760803660031901126101515761039a610edd565b6103a2610ef3565b906044356064359267ffffffffffffffff84116101515736602385011215610151576103db6102ce943690602481600401359101610f81565b926103e783838361101d565b33611474565b3461015157604036600319011261015157610406610edd565b60243590811515809203610151576001600160a01b031690811561047557335f52600560205260405f20825f5260205260405f2060ff1981541660ff83161790556040519081527f17307eab39ab6107e8899845ad3d59bd9653f200f220920489ca2b5937696c3160203392a3005b50630b61174360e31b5f5260045260245ffd5b34610151575f366003190112610151576040515f6001546104a881610fe5565b808452906001811690811561052e57506001146104d0575b61037d8361036981850382610f43565b91905060015f527fb10e2d527612073b26eecdfd717e6a320cf44b4afac2b0732d9fcbe2b7fa0cf6915f905b808210610514575090915081016020016103696104c0565b9192600181602092548385880101520191019092916104fc565b60ff191660208086019190915291151560051b8401909101915061036990506104c0565b346101515760603660031901126101515760043567ffffffffffffffff8111610151573660238201121561015157610594903690602481600401359101610f81565b60443567ffffffffffffffff8111610151576105c16105ba6105c9923690600401610fb7565b3691610f81565b602435611345565b600c545f1981146109e45760010180600c556020926040516105eb8582610f43565b5f8152331561033757825f52600285526001600160a01b0360405f20541680159081159182610a6e575b335f526003885260405f2060018154019055855f526002885260405f206001600160a01b0333166001600160a01b03198254161790558533837fddf252ad1be2c89b69c2b068fc378daa952ba7f163c4a11628f55a4df523b3ef5f80a4156109f857600854855f52600988528060405f20556801000000000000000081101561087757856106ac8260016106c494016008556112b5565b90919082549060031b91821b915f19901b1916179055565b3381036109a9575b506109965784333b61088b575b5050815f52600a845260405f209281519367ffffffffffffffff8511610877576107038154610fe5565b601f8111610834575b5085601f86116001146107cf5794806107829495965f916107c4575b508160011b915f199060031b1c19161790555b7ff8e1a15aba9398e019f0b49df1a4fde98ee17ae345cb5f6b5e2c27f5033e8ce785604051868152a1835f52600b85528060405f205561077b3082611709565b3390611709565b817fc1858a9e1260d2afcf7bd0ebec9aed42b8c7f31f5ec3f434dc8c443640b46a1f604051858152806107b9339588830190610eb9565b0390a3604051908152f35b905085015188610728565b601f19861690825f52875f20915f5b8982821061081e57505091879161078296979860019410610806575b5050811b01905561073b565b8701515f1960f88460031b161c1916905588806107fa565b600184958293958a0151815501940192016107de565b815f52865f20601f870160051c81019188881061086d575b601f0160051c01905b818110610862575061070c565b5f8155600101610855565b909150819061084c565b634e487b7160e01b5f52604160045260245ffd5b6108c39160405180938192630a85bd0160e11b83523360048401525f6024840152876044840152608060648401526084830190610eb9565b03815f335af15f9181610956575b5061092557843d1561091d573d906108e882610f65565b916108f66040519384610f43565b82523d5f8284013e5b8151918261091a57633250574960e11b5f523360045260245ffd5b01fd5b6060906108ff565b6001600160e01b03191663757a42ff60e11b016109435784846106d9565b633250574960e11b5f523360045260245ffd5b9091508581813d831161098f575b61096e8183610f43565b8101031261015157516001600160e01b0319811681036101515790866108d1565b503d610964565b6339e3563760e11b5f525f60045260245ffd5b6109b2336112e1565b5f1981019081116109e457335f526006885260405f20815f5288528560405f2055855f526007885260405f20556106cc565b634e487b7160e01b5f52601160045260245ffd5b3381146106c457610a08816112e1565b855f526007885260405f205490825f526006895260405f2091818103610a46575b50865f52600789525f60408120555f5287525f60408120556106c4565b815f52828a5260405f2054815f52838b528060405f20555f5260078a5260405f205589610a29565b610a8d865f52600460205260405f206001600160a01b03198154169055565b815f526003885260405f205f198154019055610615565b34610151576020366003190112610151576020610ac7610ac2610edd565b6112e1565b604051908152f35b34610151576020366003190112610151576020610aed600435611312565b6001600160a01b0360405191168152f35b3461015157602036600319011261015157600435600854811015610b3657610b276020916112b5565b90549060031b1c604051908152f35b63295f44f760e21b5f525f60045260245260445ffd5b34610151576102ce610b5d36610f09565b9060405192610b6d602085610f43565b5f84526103e783838361101d565b3461015157604036600319011261015157610b94610edd565b6001600160a01b0360243591610ba9816112e1565b831015610bd157165f52600660205260405f20905f52602052602060405f2054604051908152f35b63295f44f760e21b5f521660045260245260445ffd5b34610151576102ce610bf836610f09565b9161101d565b34610151575f366003190112610151576020600854604051908152f35b3461015157602036600319011261015157600435610c3881611312565b505f52600b602052602060405f2054604051908152f35b3461015157604036600319011261015157610c68610edd565b602435610c7481611312565b33151580610d28575b80610cf5575b610ce25781906001600160a01b0380851691167f8c5be1e5ebec7d5bd14f71427d1e84f3dd0314c0f7b2291e5b200ac8c7c3b9255f80a45f5260046020526001600160a01b0360405f2091166001600160a01b03198254161790555f80f35b63a9fbf51f60e01b5f523360045260245ffd5b506001600160a01b0381165f52600560205260405f206001600160a01b0333165f5260205260ff60405f20541615610c83565b50336001600160a01b0382161415610c7d565b3461015157602036600319011261015157600435610d5881611312565b505f52600460205260206001600160a01b0360405f205416604051908152f35b34610151575f366003190112610151576040515f5f54610d9781610fe5565b808452906001811690811561052e5750600114610dbe5761037d8361036981850382610f43565b5f8080527f290decd9548b62a8d60345a988386fc84ba6bc95484008f6362f93160ef3e563939250905b808210610e00575090915081016020016103696104c0565b919260018160209254838588010152019101909291610de8565b34610151576020366003190112610151576004359063ffffffff60e01b821680920361015157602091632483248360e11b8114908115610e5c575b5015158152f35b63780e9d6360e01b811491508115610e76575b5083610e55565b6380ac58cd60e01b811491508115610ea8575b8115610e97575b5083610e6f565b6301ffc9a760e01b14905083610e90565b635b5e139f60e01b81149150610e89565b805180835260209291819084018484015e5f828201840152601f01601f1916010190565b600435906001600160a01b038216820361015157565b602435906001600160a01b038216820361015157565b6060906003190112610151576004356001600160a01b038116810361015157906024356001600160a01b0381168103610151579060443590565b90601f8019910116810190811067ffffffffffffffff82111761087757604052565b67ffffffffffffffff811161087757601f01601f191660200190565b929192610f8d82610f65565b91610f9b6040519384610f43565b829481845281830111610151578281602093845f960137010152565b9181601f840112156101515782359167ffffffffffffffff8311610151576020838186019501011161015157565b90600182811c92168015611013575b6020831014610fff57565b634e487b7160e01b5f52602260045260245ffd5b91607f1691610ff4565b9190916001600160a01b03831690811561033757825f5260026020526001600160a01b0360405f205416933315158061121f575b50841580156111e8575b835f52600360205260405f2060018154019055845f52600260205260405f20846001600160a01b03198254161790558484877fddf252ad1be2c89b69c2b068fc378daa952ba7f163c4a11628f55a4df523b3ef5f80a41561116b57600854845f5260096020528060405f20556801000000000000000081101561087757846106ac8260016110ec94016008556112b5565b828503611124575b506001600160a01b0391501680830361110c57505050565b6364283d7b60e01b5f5260045260245260445260645ffd5b61112d906112e1565b5f1981019081116109e4576001600160a01b03925f52600660205260405f20815f526020528360405f2055835f52600760205260405f20555f6110f4565b8483146110ec5761117b856112e1565b845f52600760205260405f205490865f52600660205260405f20918181036111bd575b50855f5260076020525f60408120555f526020525f60408120556110ec565b815f528260205260405f2054815f52836020528060405f20555f52600760205260405f20555f61119e565b611207855f52600460205260405f206001600160a01b03198154169055565b855f52600360205260405f205f19815401905561105b565b8061125e575b15611230575f611051565b838561124857637e27328960e01b5f5260045260245ffd5b63177e802f60e01b5f523360045260245260445ffd5b50338514801561128c575b806112255750835f526004602052336001600160a01b0360405f20541614611225565b50845f52600560205260405f206001600160a01b0333165f5260205260ff60405f205416611269565b6008548110156112cd5760085f5260205f2001905f90565b634e487b7160e01b5f52603260045260245ffd5b6001600160a01b031680156112ff575f52600360205260405f205490565b6322718ad960e21b5f525f60045260245ffd5b805f5260026020526001600160a01b0360405f205416908115611333575090565b637e27328960e01b5f5260045260245ffd5b6113a8916020916001600160a01b037f9e7b61f58c47dc699ac88507c4f5bb9f121c03808c5676a8078fe583e46497015416905f60405180968195829463196d0b9b60e01b84526004840152336024840152608060448401526084830190610eb9565b6007606483015203925af1908115611437575f91611442575b506001600160a01b037f9e7b61f58c47dc699ac88507c4f5bb9f121c03808c5676a8078fe583e46497005416803b1561015157604051630f8e573b60e21b815260048101839052336024820152905f908290604490829084905af180156114375761142a575090565b5f61143491610f43565b90565b6040513d5f823e3d90fd5b90506020813d60201161146c575b8161145d60209383610f43565b8101031261015157515f6113c1565b3d9150611450565b93909293823b611486575b5050505050565b6114cd6001600160a01b0392836020951696846040519788968796630a85bd0160e11b88521660048701521660248501526044840152608060648401526084830190610eb9565b03815f865af15f9181611564575b5061153057503d15611529573d6114f181610f65565b906114ff6040519283610f43565b81523d5f602083013e5b805190816115245782633250574960e11b5f5260045260245ffd5b602001fd5b6060611509565b6001600160e01b03191663757a42ff60e11b0161155257505f8080808061147f565b633250574960e11b5f5260045260245ffd5b9091506020813d6020116115a1575b8161158060209383610f43565b8101031261015157516001600160e01b03198116810361015157905f6114db565b3d9150611573565b6115b281611312565b505f52600a60205260405f2060405190815f8254926115d084610fe5565b808452936001811690811561164c5750600114611608575b506115f592500382610f43565b5f604051611604602082610f43565b5290565b90505f9291925260205f20905f915b8183106116305750509060206115f5928201015f6115e8565b6020919350806001915483858801015201910190918392611617565b9050602092506115f594915060ff191682840152151560051b8201015f6115e8565b7f9e7b61f58c47dc699ac88507c4f5bb9f121c03808c5676a8078fe583e4649700546040516382027b6d60e01b81526004810192909252336024830152602090829060449082906001600160a01b03165afa908115611437575f916116d1575090565b90506020813d602011611701575b816116ec60209383610f43565b81010312610151575180151581036101515790565b3d91506116df565b6001600160a01b037f9e7b61f58c47dc699ac88507c4f5bb9f121c03808c5676a8078fe583e4649700541691823b1561015157604051635ca4b5b160e11b815260048101929092526001600160a01b03166024820152905f908290604490829084905af180156114375761177a5750565b5f61178491610f43565b56fea164736f6c634300081b000a",
  "linkReferences": {},
  "deployedLinkReferences": {}
}